:020000040800F2
:1000000010190020D5020008DD020008DF020008F8
:10001000E1020008E3020008E50200080000000019
:10002000000000000000000000000000E7020008DF
:10003000E902000800000000EB020008A1430008EC
:10004000EF020008EF020008EF020008EF020008CC
:10005000EF020008EF020008EF020008EF020008BC
:10006000EF020008EF020008EF020008EF020008AC
:10007000D12D0008D72D0008EF020008EF0200087C
:10008000DD2D0008EF020008EF020008EF02000873
:10009000EF020008EF020008EF020008EF0200087C
:1000A000EF020008EF020008EF020008EF0200086C
:1000B000EF020008EF020008EF020008EF0200085C
:1000C000EF020008EF020008EF020008EF0200084C
:1000D000EF020008EF020008EF020008EF0200083C
:1000E000EF020008EF020008EF020008EF0200082C
:1000F000EF020008EF020008EF020008EF0200081C
:10010000EF020008EF020008EF020008EF0200080B
:10011000EF020008EF020008EF020008EF020008FB
:10012000EF020008EF020008EF020008EF020008EB
:10013000EF020008EF020008EF020008EF020008DB
:10014000EF020008EF020008EF020008EF020008CB
:10015000E32D0008EF020008EF020008EF0200089C
:10016000EF020008EF020008EF020008EF020008AB
:10017000EF020008EF020008EF0200080000000094
:10018000EF020008EF02000800F002F800F092F819
:100190000AA090E8000C82448344AAF10107DA45E2
:1001A00001D100F087F8AFF2090EBAE80F0013F0A2
:1001B000010F18BFFB1A43F001031847F047000076
:1001C00010480000103A24BF78C878C1FAD8520706
:1001D00024BF30C830C144BF04680C6070470000C1
:1001E0000023002400250026103A28BF78C1FBD840
:1001F000520728BF30C148BF0B6070476E2900F01E
:10020000EB83702900F05381662904F06082652930
:1002100004F05D82672904F05A82612904F0598252
:1002200003681B0A28BF41F08001692900F0988308
:10023000642900F09583752900F092836F2900F0FE
:10024000D884782900F01F81E92900F07384E4291B
:1002500000F07084F52900F06D84EF2900F0D5845A
:10026000F82900F01E810368DB0928BF41F08001F6
:10027000632900F0F483732900F0F983E32901F086
:100280001B81F32901F02081002070471FB504F085
:1002900019FA01F06BF904000020002104F0FCF9C8
:1002A000401C60600020002104F0E0F9E0601FBD08
:1002B00010B510BD01F02CF91146FFF7E7FF04F06F
:1002C0009FF901F009FA03B4FFF7F2FF03BC01F054
:1002D00051FA00000948804709480047FEE7FEE759
:1002E000FEE7FEE7FEE7FEE7FEE7FEE7FEE7FEE7E6
:1002F00004480549054A064B70470000C5430008FD
:10030000890100081013002010190020101500208A
:100310001015002080F30888BFF34F8FBFF36F8F55
:10032000084700007CB51D4616460C00009001D021
:100330002044401E074B7B442A46694601903046C4
:1003400000F063FB05461CB10020694600F070FB1D
:1003500028467CBD010700000FB47CB50C0009AA3B
:10036000009001D02044401E084B7B446946019018
:10037000089800F04AFB05461CB10020694600F0D1
:1003800057FB28467CBC5DF814FB0000CD0600003E
:1003900070B5044685690068C10601D5302600E0C5
:1003A0002026C00707D070BDD4E901213046904710
:1003B000206A401C20626D1EF6D570BD70B50446E3
:1003C00085690078C00707D170BDD4E901212020DC
:1003D0009047206A401C20626D1EF6D570BD70B536
:1003E0000C460546012A05D02878800600D5EA6922
:1003F000002302E0012305E05B1C934202D2E05C93
:100400000028F9D1A869E618C01AA861286A18441A
:1004100028622846FFF7BCFF04E0D5E9012114F863
:10042000010B9047B442F8D32846FFF7C7FF70BDD1
:10043000F0B40D460188090502D5214C7C4402E048
:100440001F4C7C440E34002100F1240608E002F029
:100450000F071209E75D42EA03721B097754491C32
:1004600052EA0307F3D102780023120704D5702D56
:1004700006D009B1022311342246F0BC00F016BAAE
:1004800001231034F8E770B504460D462146106884
:1004900000F003FA024629462046BDE870400023DA
:1004A000C6E7D21D22F00703D3E90023C0E70368A3
:1004B000126843F0200303600823C3610023B7E7F9
:1004C0006C4400002DE9F05F894604464FF0000AB5
:1004D000DFF874B1FB44C0F820A02046E1688847EB
:1004E000002874D0252806D0D4E901219047206A3D
:1004F000401C2062F1E700265F462046E1688847FD
:100500002028054607DB312D05D2781910F8200C7C
:1005100008B10643F1E7B00701D526F00406C4F898
:100520001CA00027C4F818A02A2D09D0284604F0E2
:1005300060F838B304EB8708303DC8F8185019E06C
:1005400059F8041B204604EB87029161E168884753
:10055000012F054618D1E069002820DA26F0200690
:100560001DE0D8F8180000EB800005EB40003038A3
:10057000C8F818002046E1688847054604F039F8B5
:100580000028EED1012F0AD02E2D08D12046E16897
:1005900088477F1C0546022F46F02006C4DBA06971
:1005A000002803DA404246F00106A061F00701D0BE
:1005B00026F010066C2D0BD0682D09D04C2D39D0AB
:1005C0006A2D35D0742D35D07A2D33D016E038E031
:1005D000E1682F4620468847B842054609D16C2F6E
:1005E00026D04FF48060E1680643204688470546E0
:1005F00004E06C2F1AD04FF4807006430DB3A5F1C0
:100600004100192802D8203546F400664A4629469A
:10061000204626604E46FFF7F1FD80B101280BD041
:10062000F61D26F0070000F1080956E74020E4E730
:100630008020D8E70020D6E706F104094DE72846D8
:1006400052E7206ABDE8F09FFC43000040EA010346
:1006500010B59B070FD1042A0DD310C808C9121F6B
:100660009C42F8D020BA19BA884201D9012010BDA5
:100670004FF0FF3010BD1AB1D30703D0521C07E072
:10068000002010BD10F8013B11F8014B1B1B07D1D6
:1006900010F8013B11F8014B1B1B01D1921EF1D147
:1006A000184610BD10B5431C02E010F8011B71B1D3
:1006B0008107FAD14FF0013202C88C1A8C4314EA38
:1006C000C211F9D0C01A0A0603D0C01E10BDC01A4C
:1006D00010BD0A0401D0801E10BD0902FCD0401ECE
:1006E00010BD032A40F2308010F0030C00F015809A
:1006F00011F8013BBCF1020F624498BF11F801CB25
:1007000000F8013B38BF11F8013BA2F1040298BF89
:1007100000F801CB38BF00F8013B11F0030300F0F3
:100720007F82083AC0F0088051F8043B083A51F83B
:1007300004CBA0E80810F5E7121D5CBF51F8043B9C
:1007400040F8043BAFF30080D20724BF11F8013B0F
:1007500011F801CB48BF11F8012B24BF00F8013B71
:1007600000F801CB48BF00F8012B7047431A28BF9F
:100770009A427FF6B6AF032A1044114440F2268015
:1007800010F0030F1EBF11F8013D521E00F8013D8D
:1007900010F0030F7FF4F6AF11F0030300F0858231
:1007A000083AC0F00B8051F8043D083A51F804CDE6
:1007B00040F8043D40F804CDFFF7F3BF121D5CBFC5
:1007C00051F8043D40F8043DAFF30080D20724BF48
:1007D00011F8013D11F801CD48BF11F8012C24BFDB
:1007E00000F8013D00F801CD48BF00F8012C70472A
:1007F0004FF000020429C0F0128010F0030C00F04A
:100800001B80CCF1040CBCF1020F18BF00F8012BC7
:10081000A8BF20F8022BA1EB0C0100F00DB85FEA95
:10082000C17C24BF00F8012B00F8012B48BF00F861
:10083000012B70474FF0000200B5134694469646D0
:10084000203922BFA0E80C50A0E80C50B1F12001E3
:10085000BFF4F7AF090728BFA0E80C5048BF0CC091
:100860005DF804EB890028BF40F8042B08BF7047EF
:1008700048BF20F8022B11F0804F18BF00F8012B61
:10088000704770477047704709684A0501D540B204
:100890007047C905FCD500B2704709684A0501D503
:1008A000C0B27047C905FCD580B270472DE9F0474A
:1008B0000D4699469246044600F1240801688806D0
:1008C00004D5E06921F01001216000E00120A84278
:1008D00001DD471B00E00027A1697A1902EB09003E
:1008E000081AA0612078C00602D42046FFF750FD08
:1008F000002608E0D4E901211AF806009047206A92
:10090000401C761C20624E45F4DB2078C0060AD5D8
:100910002046FFF73DFD06E0D4E901213020904755
:10092000206A401C2062381EA7F10107F4DC07E0B2
:10093000D4E9012118F805009047206A401C206284
:10094000281EA5F10105F3DC2046FFF737FD2078CE
:10095000000602D50220BDE8F0870120FBE7000079
:100960002DE9F0410646002410687529314616A588
:1009700010D0FFF789FF002802DA404213A507E0F4
:1009800031688A0701D512A502E0490704D511A5EF
:10099000012401E0FFF781FF00210A2206F124076C
:1009A00009E0B0FBF2FCB0FBF2F302FB1C003030BC
:1009B00078541846491C0028F3D123462A4630466D
:1009C000BDE8F041FFF772BF000000002D000000FD
:1009D0002B0000002000000011680268006A530527
:1009E00001D508700AE0D30501D5088006E013069A
:1009F00003D5C217C1E9000200E00860012070477A
:100A000001694A1C02610878704700B58FB0CDE9D2
:100A100001310021059105497944CDE903101146C2
:100A20006846FFF74FFD0FB000BD0000E5FFFFFF78
:100A30000A6802F8010B0A607047D1E900239A4264
:100A400002D2531C0B601070704710B5436913B18C
:100A5000AFF3008001E0FFF7C2FC012010BD127867
:100A600000F124010A7000224A700122EDE71168AA
:100A70004FF0FF32E9E700002DE9FF5F15468A4697
:100A80000446DFF8AC80F8440027D8E900103E4661
:100A9000CDE9001010E03AF816106A4602A800F0FE
:100AA00017FD411C07D02178890603D5E269391862
:100AB00091420DD80744761C2078800602D5E06963
:100AC000B84205DDAE42E6DB3AF816000028E2D176
:100AD000A069C01BA0612046FFF75AFCD8E90010AE
:100AE000CDE90010002017E03AF818106A4602A875
:100AF00000F0EEFCB0F1FF3F81460BD000250DF178
:100B0000080B05E0D4E901211BF8050090476D1C96
:100B10004D45F7D308F10100B0428046E4DB206A7E
:100B2000384420622046FFF749FCBDE8FF9F0000E3
:100B30005E3E00002DE9F0418046D21D22F0070202
:100B40000025D2E90002F52915A614D0011E72F184
:100B5000000106DA0023D0EB030063EB020211A6CA
:100B600008E0D8F800108B0701D50FA602E049076E
:100B700001D50EA601251146002408F1240704E042
:100B800000F0BDF830323A55641C50EA0102F7D14A
:100B90002B46324621464046BDE8F041FFF786BE6F
:100BA000000000002D0000002B00000020000000CD
:100BB00030B4002100F1240408E002F00705D20857
:100BC000303542EA4372DB086554491C52EA03059A
:100BD000F3D10468002310A2250707D5A40600D48A
:100BE00021B1C46901230DA2641EC46130BCFFF7AA
:100BF0005DBE10B5044621461068FFF74EFE024662
:100C00002046BDE810400023D2E7D21D22F00701A4
:100C1000D1E90023CCE70000000000003000000014
:100C200010B5203AC0F00B80B1E81850203AA0E887
:100C30001850B1E81850A0E81850BFF4F5AF5FEABB
:100C4000027C24BFB1E81850A0E8185044BF18C96E
:100C500018C0BDE810405FEA827C24BF51F8043B15
:100C600040F8043B08BF7047D20728BF31F8023B69
:100C700048BF11F8012B28BF20F8023B48BF00F8FD
:100C8000012B7047431A28BF9A427FF6C9AF104420
:100C900010F0030F11441EBF11F8013D521E00F861
:100CA000013D10F0030F7FF4F6AF103AC0F00A8058
:100CB00010B531E91850103A20E91850BFF4F9AFD7
:100CC000BDE81040530724BF31E9081020E908109F
:100CD00044BF51F8043D40F8043D12F0030F08BF33
:100CE0007047D20728BF31F8023D48BF11F8012CE8
:100CF00028BF20F8023D48BF00F8012C704730B5EE
:100D0000B0F10A024FEA900E71F100034EEA817EC3
:100D1000B0EB0E0061EB91014FEA101E4EEA017E2E
:100D200010EB0E0041EB11114FEA102E4EEA016E4E
:100D300010EB0E0041EB11214FEA104E4EEA014E2E
:100D400010EB0E0041EB1141401841F100014FEA58
:100D5000D00040EA41704FEAD10110EB80054FEA24
:100D6000810444EA907444EB01046D1944EB0404DB
:100D7000521BA3414FF0000348BF0A3200D530BDDB
:100D8000401C41F1000130BD70472DE9FF4F0C467A
:100D90001E464FF0FF378BB0D2E90001DDF86080CE
:100DA0000A908A46C1F30A5505B93D460021084616
:100DB0004FF00000BAF1000F00F4400005DA00EB3C
:100DC00080004FF4400101EA50004FEA9059B9F118
:100DD000010F00DDB9460A9850EA4A000ED044F6E9
:100DE0001050A5F2FF3545432F14B8F1000F1ED067
:100DF0007542291E1EDDC9F100021CE0B8F1010F89
:100E00004FF0000001D0302103E0F24305E021540F
:100E1000401CB042FBDB30460022002121540B99DC
:100E2000C1F80880C1E900200FB0BDE8F08FBD1BFC
:100E30006D1CDEE74A4600DA694206A800F0DAFBDC
:100E400006AB93E8070003AB83E8070050460A9916
:100E500000F097FC8DE80700A0F500501F380090C7
:100E60000398002D0ADD42F21F014A460844002380
:100E700003A90390684600F000FF09E0A0F50050C8
:100E80004A461F38002303A90390684600F00AFF72
:100E90008DE807000004000C03D04FF0FF3041083C
:100EA00000E01046B8F1000F03D000220092154672
:100EB0001EE0751E05D4FFF722FF303262556D1E0D
:100EC000F9D5B3460122084302D000227F1C04E07A
:100ED0002078302801D100227F1E002A099784D073
:100EE0001DE0112D07DAFFF70AFF303262556D1C45
:100EF00050EA0102F5D1084302D00098C8B10EE0D3
:100F00000021681E05E0235C625C63542254401E8D
:100F1000491C8142F7DBAB46A81B401E099000200C
:100F200004F80B000B98099AC0F80880C0E9002B60
:100F30007AE711264FF0000857E72DE9F04F884671
:100F40000446D21D22F0070191B0D1E90001CDE99C
:100F50000A0103F036FB02460B98C00F01D02D208A
:100F600007E02068810701D52B2002E0202101EA5B
:100F7000C000032A099001D0072A05DB0346414639
:100F8000204600F0F7FA0BE12078800601D5E069F1
:100F900000E00620B8F1650F814606D0B8F1660F73
:100FA00018D0B8F1670F70D131E00020B9F1110FFE
:100FB000009001DB112301E009F101030AAA01A954
:100FC0000CA8FFF7E2FEDDE90C70002609F101052F
:100FD000834647E001204B4600904FF000470AAAA5
:100FE00001A90CA8FFF7D1FEDDE90DB00C995D4613
:100FF000002610B909F101000D18B9EB050003D462
:10100000C0F1FF3609F10105A5EB09002BE0B9F1AC
:10101000010F01DA4FF001090020B9F1110F009022
:10102000484601DD112300E003460AAA01A90CA8E5
:10103000FFF7ABFEDDE90C704D46002683462078B5
:1010400000070AD4AB4500DA5D4601A8012D04DD96
:10105000411911F8011C302907D04F4502DA17F168
:10106000040F04DA012082460FE06D1EEEE7002F28
:1010700002DCED1B3E4403E0781CA84200DD7D1C31
:10108000B81B00F1010A4FF000472078000703D495
:10109000AA4501DB4FF0FF3A0021B7F1004F0DF1F7
:1010A00043088DF8431024D002202B23002F01DAAF
:1010B0007F422D230A21021EA0F1010000DC5FB156
:1010C00097FBF1FC97FBF1F201FB1C7C17460CF13E
:1010D000300C08F801CDEEE7A8F10100037021887B
:1010E000090501D5452100E06521A0F1010800F8BE
:1010F000011C09980FA9A1EB0807FF1D00B10120F1
:10110000411901EBEA70A1693844081A401EA06138
:101110002078C00602D42046FFF73AF9099828B192
:10112000D4E901219047206A401C20622078C00643
:1011300022D52046FFF72CF91EE0002E04DBB34534
:1011400002DD01A8805D00E03020D4E90121904754
:10115000206A401C2062761CAAF101005FEA000AA6
:101160000AD100F003FAC0680168405CD4E90121AB
:101170009047206A401C2062281EA5F10105DCDC96
:1011800007E0D4E9012118F8010B9047206A401CC0
:101190002062381EA7F10107F3DC2046FFF70EF9A5
:1011A000032011B041E600002DE9F04F04460D4642
:1011B000D21D22F0070089B0D0E900974846394691
:1011C00003F0FFF90246F80F01D02D2307E0206855
:1011D000810701D52B2302E0202101EAC0038DF80D
:1011E00020300BB1012000E00020032A824601D00C
:1011F000072A04DB2946204600F0BCF93FE12078AD
:10120000800601D40D2500E0E569C7F30A560D2DCF
:1012100049DA00214FEA175B08464FF00000002F23
:1012200000F4400007DA00EB80004FF4400100EBCF
:10123000D07001EA60008115012901DD4FF0FF3116
:1012400000224FEA850CBCF1180F06D31346ACF10F
:1012500018004FF08052C24003E04FF4801323FA8D
:101260000CF30CF10C0CBCF1200F04D3ACF1200CEE
:1012700009FA0CF001E007FA0CF000294FF00048E1
:1012800001DD18B90FE00ED140450CD319EB02096E
:101290005F4121B9404502D19F4329EA0209BBEBD6
:1012A000175F00D0761C2088000502D57B48784463
:1012B00002E07A487844193808AA302302F80A3044
:1012C000037C0AF10101002E0AF1020A53546A4616
:1012D00002DC4FF0300101E04FF031014FF0010826
:1012E0008DF8001002D0A6F2FF3603E059EA47015C
:1012F00000D06B4E002D02DC2178090704D54FF099
:1013000002082E218DF80110C44600210BE0C7F31E
:1013100003433F01C35C491C6D1E02F808300529D8
:1013200008F1010801DA002DF1DC00210CE000EBEE
:101330001973491C1B786D1E082902F808304FEA02
:10134000091908F1010801DA002DF0DC21688B068B
:1013500002D516E0A8F10108E04505DD02EB08031F
:1013600013F8013C302BF5D0B8F1000F09DD02EB8A
:10137000080313F8013C2E2B03D1090701D4A8F16F
:101380000108002D05DD3E2102F808106D1E08F150
:101390000108407C002E02F8080008F1010804DA78
:1013A0002D20764202F8080002E02B2002F8080007
:1013B0000A214FF47A70864208F101080BDB96FB94
:1013C000F0F3303302F8083096FBF0F308F101082F
:1013D00000FB136601E0642E0CDB642096FBF0F347
:1013E000303302F8083096FBF0F308F1010800FBF7
:1013F000136601E00A2E06DB96FBF1F0303002F8AE
:10140000080008F1010896FBF1F001FB1060303094
:1014100002F80800A16908F1010808EB050202EBD7
:101420000A00081AA0612078C00602D42046FEF700
:10143000AFFF216A08AE01EB0A00206204E0D4E9A4
:10144000012116F8010B9047BAF1010AF7D2207872
:10145000C00602D52046FEF79BFF6E4609E016F84F
:10146000010B3E280FD0D4E901219047206A401C8F
:101470002062B8F10108F2D22046FEF79FFF09B0C2
:101480000320BDE8F08F206A2844206203E0D4E9FD
:101490000121302090476D1EEBD3F8E75136000054
:1014A00002FCFFFF10B5436913B1AFF3008001E008
:1014B000FFF7E2FA012010BD128800F124018284B6
:1014C0000022C2840122EDE711684FF0FF32E9E704
:1014D00070B516460C46054600F040F8036893F8D0
:1014E0000101012806D0FF2C0FD8185D68B101203A
:1014F0002C7070BDD3F807013246214603F2071362
:1015000003442846BDE8704018474FF0FF3070BDD7
:10151000754600F0EBF8AE4605006946534620F0EC
:101520000700854618B020B5FEF7E2FEBDE8204072
:101530004FF000064FF000074FF000084FF0000B8F
:1015400021F00701AC46ACE8C009ACE8C009ACE842
:10155000C009ACE8C0098D467047000010B500F026
:1015600005F8001D10BD00BF313100000048704774
:10157000CC1200202DE9F0411F46044603260168E5
:10158000072A01F4006004DB08B116A505E016A5E2
:1015900003E008B115A500E015A521F010002060BA
:1015A000A069C01EA0610FB1401EA0612046FEF7D9
:1015B000EFFE4FB1D4E9012138469047206A401C24
:1015C0002062C01C206206E0206AFAE7D4E901210B
:1015D00015F8010B9047761EF8D22046FEF7EEFE76
:1015E000BDE8F0814E414E006E616E00494E4600EE
:1015F000696E66002DE9F047814616468AB0354887
:1016000078440DC88DE80D0032487844801C03AC46
:101610000DC884E80D0041F69B300844372190FB4B
:10162000F1F290FBF1F5A5F1800501FB12041B3CE2
:1016300002D56442012000E00020DFF898A0804637
:101640000027FA44AAF1BE0A0EE0E0070AD03246AB
:10165000684607EB470101230AEB810100F022FBFA
:101660008DE8070064107F1C002CEED1194F7F44D9
:10167000AE3F19E0E80715D007EB04100DF1180A8A
:1016800090E80E008AE80E00C068F04201D1981977
:1016900008903246012306A903A800F003FB03AB20
:1016A00083E807006D10641C002DE3D14FF00103A7
:1016B00032466946B8F1000F03A802D000F0DDFA07
:1016C00001E000F0EFFAC9E90001C9F808200AB00A
:1016D000BDE8F0879033000010B50446AFF30080FA
:1016E0002046BDE81040FEF7EEBD00000048704700
:1016F000AC1200204FF0013C50F8042B51F8043B91
:101700009A4221D1A2EB0C03934313EACC1317D1D5
:1017100050F8042B51F8043B9A4215D1A2EB0C036C
:10172000934313EACC130BD150F8042B51F8043B2C
:101730009A4209D1A2EB0C03934313EACC13DBD0FA
:101740004FF00000704700BFD01A01BAB1FA81F122
:1017500001F0180122FA01F0CB40C1F12001DBB207
:10176000C0B2C01A2CFA01F3D11A914311EAC31185
:10177000E6D1704701491820ABBEFEE72600020003
:1017800070475FEA400C08BF91F0000F4FEA8C23CE
:101790004FEAC12243EA51514FEA1C5018BF00F5ED
:1017A000F0404FEA300018BF41F000415FEA6C5C46
:1017B00000F02980BCF1FF3F08BF40F08040704737
:1017C000130C06BF12044FF0100C4FF0000C130E58
:1017D00004BF12020CF1080C130F04BF12010CF12C
:1017E000040C930F04BF92000CF1020CD30F04BF42
:1017F00052000CF1010C11464FF00002A0F11F0045
:10180000A0EB0C00704711F0004F08BF704731F09B
:1018100000413FF4D5AF0B0C06BF09044FF0100C8C
:101820004FF0000C0B0E04BF09020CF1080C0B0F5B
:1018300004BF09010CF1040C8B0F04BF89000CF1EB
:10184000020CCB0F04BF49000CF1010CCCF12003BA
:10185000A0EB0C0022FA03F302FA0CF241EA0301B6
:1018600000F10100704720F07F4C80EA030023F074
:101870007F47ACEB070303F57C5300F0004003F116
:10188000FF032DE980494FEA154B09B44FEA144391
:1018900025EA0B4E24EA03480FF2042606EB132731
:1018A00049083E785FEA320203FB0667C7F5000786
:1018B00007FB06F64FEA54374FEAD64606F1020612
:1018C00007FB066CCCF1005C4FEA1C472CEA074C86
:1018D00007FB06F40CFB06F504EB15464FEA9616DB
:1018E00034BF00204FF000404FEAD13706FB07FC21
:1018F0004FEA1C4C0CFB0BF7D21B03FB0CF761EB04
:1019000007010CFB0EF7B0EB074072EB17420CFB24
:1019100008F734BFA2EB0742B2EB074261EB174175
:101920004FEA0C444FEA910706FB07FC4FEA1C4CB8
:101930000CFB0BF7B0EBC74072EB573203FB0CF715
:1019400034BFA2EBC742B2EBC74261EB57310CFB8D
:101950000EF7B0EBC70072EB57720CFB08F734BF01
:10196000A2EBC702B2EBC70261EB5771039F4FEACC
:10197000816141EA921104EBCC044FEAD1374FEA7E
:10198000826206FB07FC42EA90124FEA80604FEA4F
:101990001C4C0CFB0BF7D21B03FB0CF761EB070194
:1019A0000CFB0EF7B0EB074072EB17420CFB08F78D
:1019B00034BFA2EB0742B2EB074261EB17414FEA9B
:1019C0008C554FEA910704EB9C2406FB07FC4FEA79
:1019D0001C4C0CFB0BF7B0EBC74072EB573203FB10
:1019E0000CF734BFA2EBC742B2EBC74261EB5731F1
:1019F0000CFB0EF7B0EBC70072EB57720CFB08F74D
:101A000034BFA2EBC702B2EBC70261EB577115EB13
:101A10004C254FEA816141EA92114FEA82624FEA16
:101A2000D13742EA901206FB07FC44F100044FEA6A
:101A300080604FEA1C4C0CFB0BF7D21B03FB0CF72E
:101A400061EB07010CFB0EF7B0EB074072EB17429E
:101A50000CFB08F734BFA2EB0742B2EB074261EB85
:101A6000174115EB1C154FEA813141EA92414FEACB
:101A7000823242EA90424FEA80304FEA0C7644F1DB
:101A8000000448EA03434EEA0B484FF0000EB2EB65
:101A9000080C71EB030724BF624639464EEB0E0E6D
:101AA0004FF0000B0018524149414BEB0B0BB2EBCE
:101AB000080C71EB03077BF1000B24BF624639462B
:101AC0004EEB0E0E4FF0000B0018524149414BEB0C
:101AD0000B0BB2EB080C71EB03077BF1000B24BF7F
:101AE000624639464EEB0E0E51EA020718BF46F029
:101AF000010616EB0E7655F1000254F1000103D5F4
:101B0000BDE88901BDE80088BDE88901BDE800485D
:101B1000B619524141EB0101A3F1010370478080E6
:101B20007F7E7D7C7B7A7978777676757473727137
:101B300071706F6E6E6D6C6C6B6A6A6968686766EF
:101B400066656464636362616160605F5F5E5E5D81
:101B50005D5C5C5B5B5A5A595958585757565655F5
:101B600055555454535352525251515050504F4F57
:101B70004F4E4E4D4D4D4C4C4C4B4B4B4A4A4A49A7
:101B800049494848484747474746464645454544EA
:101B90004444444343434342424242414141002B77
:101BA0009C4630D477002BD01CB54FEA370703B4DE
:101BB0004FF010004FF01001BAF1000F06D0BCF149
:101BC000000FDCBF40F0080040F008014FF00000BB
:101BD0000FBCBDE810400BF1010BBBF1010F08BFBA
:101BE0005FEA170722BF12F1010211F101014FF064
:101BF000004143F1000300F0004043EA0000704759
:101C0000F9D35708D0E746EA064613F1400F4FEAEA
:101C100016461FDD13F1200FDFBF16430A460021D1
:101C200020335B42BED0C3F1200746EA064602FAE3
:101C300007F74FEA164646EA0706C3F1200722FADD
:101C400003F201FA07F721FA03F14FF0000342EA29
:101C50000702A7E746EA020646EA06464FEA1646A4
:101C600046EA0106BCBF46EA0646360C4FF00003C2
:101C70004FF000024FF0000194E72DE9804C9A46A6
:101C8000934670B491E8380007C831EA400C48BF69
:101C900034EA430C03D5FFF7E6FDFFF780FFF0BC05
:101CA000BDE8008C2DE9804C9A46934670B491E8CB
:101CB000380007C810F0804F08BF13F0804F03D1E1
:101CC00000F005F8FFF76BFFF0BCBDE8008C20F0DA
:101CD0007F4780EA030023F07F4C07EB0C03A3F55A
:101CE0007C5300F00040A3F1FE0392F0000F00F0DF
:101CF000B38095F0000F00F077802DE901494FEA9D
:101D000011404FEA144621EA004800FB06FC24EA91
:101D1000064708FB06F607FB08F800FB07F718EB79
:101D200006484CEB164C4FEA124B18EB07484FEAAB
:101D300015464CEB174022EA0B4E0BFB06FC25EA3E
:101D400006470EFB06F607FB0EFE0BFB07F71EEB26
:101D5000064E4CEB164C4FF000061EEB074E4CEBBC
:101D6000174B18EB0B0840F1000018EB0E0B58EB6B
:101D7000000840F100008F1A4FF000013CBFC9433A
:101D8000661B14BFB5EB040C00213CBFC943F61B16
:101D90004FEA17444EEA8E0E27EA04454FEA1C47E5
:101DA00004FB07622CEA074C05FB07F70CFB05F662
:101DB00004FB0CFC16EB074642EB174216EB0C46F5
:101DC00042EB1C421BEB060658EB0202414146EA7D
:101DD0009E0601D5BDE80189B619524141EB0101CA
:101DE000A3F10103BDE801894FEA14454FEA114709
:101DF00024EA054621EA074C05FB07F406FB07F732
:101E00000CFB06F105FB0CFC11EB074144EB1744FE
:101E10004FEA124711EB0C4144EB1C4422EA074CF9
:101E200005FB07F206FB07F70CFB06F605FB0CFCAF
:101E300016EB074642EB174216EB0C4642EB1C45ED
:101E40006A1854F1000148BF7047B619524141EB7E
:101E50000101A3F10103704795F0000F37D04FEA5D
:101E600011424FEA144721EA024624EA074C02FBDA
:101E700007F106FB07F70CFB06F402FB0CFC14EB66
:101E8000074441EB17414FEA154714EB0C4441EB73
:101E90001C4125EA074C02FB07F506FB07F70CFB84
:101EA00006F602FB0CFC16EB074645EB174516EB56
:101EB0000C4645EB1C42121951F1000148BF704716
:101EC000B619524141EB0101A3F1010370474FEAFA
:101ED00014454FEA114724EA054621EA074C05FB61
:101EE00007F106FB07F70CFB06F24FF0000605FBB7
:101EF0000CFC12EB074241EB174112EB0C4251EB89
:101F00001C4148BF7047921841EB0101A3F1010346
:101F100070470A4601464FF6FF70AFF30080F0B5F8
:101F2000002919D0002341F221054FF6FF7611E078
:101F3000CC5C80EA04200024070403D585EA400035
:101F400080B201E006EA4000641CE4B2082CF3D33E
:101F50005B1C9BB29342EBD3F0BD2DE9FE4F9B4639
:101F600017460E4604007DD0002E7BD00025AA46E1
:101F700004F1350904F13C08ACE02169705D491CAD
:101F8000C4F848B2216194F83410E1B3012943D078
:101F9000022951D003297BD094F84412B4F842228C
:101FA000CB0098400243491CC8B2A4F8422284F8EE
:101FB000440202282DD3072249464FF6FF70FFF74F
:101FC000AEFFB4F840224146FFF7A9FFB4F8421231
:101FD000814277D194F836008DF8000094F83700EC
:101FE0008DF80100608FADF80200CDF80480B4F8E0
:101FF0004002ADF80800D4E90221684690476069C4
:10200000401C606161E0FFE7A52803D0E06A401C46
:10201000E0625DE0012040E05A2807D0A52857D0B3
:10202000E06A401CE06284F834A051E0022084F8A9
:102030003400A4F83CA24BE0B4F83C22511CA4F8B4
:102040003C1202F80900B4F83C02072840D3208F64
:10205000A4F8400294F83510012904D0E069401C2E
:10206000E06132E039E094F8371019B1206A401C81
:1020700020622AE094F83610FF2905D02188884292
:1020800002D8B0F5007F04D9606A401C60621CE091
:1020900006E0A4F83EA280B1032084F8340017E0E3
:1020A000B4F83E124A1CA4F83E2201F80800B4F825
:1020B0003E02B4F8401288420AD3204602F0BCFA2D
:1020C00006E0FFE7A069401CA061204602F0BDFACF
:1020D0006D1CADB2BD42FFF450AFBDE8FE8F70B5D0
:1020E0000C46050007D034B1A06820B1208810B19B
:1020F000B0F5007F01D9002070BD4FF41371284660
:10210000FEF798FB94E80F0085E80F00002085F8A3
:102110003400012070BD00280ED090F83420002A31
:102120000AD0D0F84822891A4268914204D3816AC1
:10213000491C816202F089BA70472DE9F041DDE95E
:102140000654DDE908C705F10B06B6B203B93DB97F
:1021500034B12FB1FF2800D021B10220BDE8F081B9
:102160000120FBE7B5F5007F01D90320F6E7B44570
:1021700001D20420F2E74FF0A50C84F800C04FF024
:102180005A0C84F801C04FF0010C84F802C0E070D2
:1021900021716571280AA071E271100A20722DB1B7
:1021A0002A46194604F10900FEF79BFAE81D81B2A0
:1021B000A01CFFF7AEFE61194872000A88723E80CB
:1021C0000020CBE7114908684968420719D1B0F1EE
:1021D000005F04D9A0F10052B2F5003F07D9B0F179
:1021E000805F0ED9A0F18050B0F5803F09D8C807B4
:1021F00008D021F00100054949420844B0F5E02F1C
:1022000001D3002070470120704700000000010842
:1022100038B501F0ADFF012002F048F802F0AAF84D
:10222000012847D10121000701F072FF4FF440401F
:1022300001F058FF002002F02FF84FF4A05002F0F8
:1022400043F84FF4805002F049F8052000F0AEFF4B
:10225000012000F063FF012000F04AFF012000F0A0
:10226000DDFE07200821009002234FF4A872C80465
:1022700002F044F8012002F03BF8124D2C4600E039
:10228000641E392001F0E6FF08B9002CF8D139208E
:1022900001F0E0FF70B1022002F062F800E06D1E74
:1022A00001F0F2FF082801D0002DF8D101F0ECFF79
:1022B000082803D0BDE8384000F080B802F078F874
:1022C000012038BD40420F000148406870470000BF
:1022D000040000202DE9F041FFF774FF002830D002
:1022E000194D2F686E6872B600244FF0E02004612B
:1022F0004461846115494FF02060086020464A1708
:10230000810001F1E021C1F88021C1F88022401C48
:102310000828F5D301F02CFF0C48001D05600020B3
:1023200080F3098880F3148884F3118884F3138878
:10233000BFF34F8FBFF36F8F31463846FDF7EAFF8B
:10234000FEE7BDE8F08100000000010804ED00E0B8
:1023500072B6BFF34F8F05480168054A01F4E0618A
:1023600011430160BFF34F8F00BFFDE70CED00E0AC
:102370000400FA0570B510480024446000684FF46A
:102380007A71884216D3B0FBF1F0401EB0F1807F25
:1023900010D24FF0E0256861661E0F21304601F033
:1023A0008DF8AC61072028610F21304601F086F8D6
:1023B000012070BD002070BD0400002010B501F0A8
:1023C000D7FE002000F0F2FE01F0F2FF002010BD69
:1023D0002DE9F0410E46054600F038F938B31E4BA2
:1023E0001E4A3146284600F0AFF800B3284600F0F8
:1023F00015F904462E44701E00F010F90746002C13
:1024000021DBA7421FDB00F0D7FEDFF8548010E08D
:10241000F32000F0FDFD04EB440108EB81000221F4
:10242000806800F011FE092802D000F06FFE0AE07B
:10243000641CBC42ECDD00F069FE00F013F806E01D
:102440002878FF2802D00020BDE8F0816D1CAE4244
:10245000F6D80120F8E70000000008080000010895
:1024600028480008074810B50068400509D5002035
:1024700000F0D4FD00F0E0FDBDE81040012000F0C8
:10248000CDBD10BD003C024010B5044B04461A02FD
:1024900000F05AF8002800D0204610BD00000808BF
:1024A0002DE9F04115460C00064621D000F0CEF88B
:1024B000F0B1124B124A2946304600F045F8B8B147
:1024C000FFF7D0FF00F078FEF32000F0A1FD2A46D0
:1024D0002146304600F016F8074600F017FEFFF7D9
:1024E000C1FF2FB12A4621463046FEF7AFF810B1A2
:1024F0000020BDE8F0810120FBE700000000080893
:10250000000001082DE9F04115460E46074600245B
:1025100016E0381981070AD1291B042907D331197C
:10252000096800F025FE092806D1241D08E0315D68
:1025300000F002FE092802D00020BDE8F081641CF2
:10254000AC42E6D30120F8E749B1904207D3984264
:1025500005D24218824202D3181A884201D20020C2
:10256000704701207047000070B515460C00064604
:102570000CD0074B29461A02FFF7E6FF30B12A4676
:1025800031462046FEF7ADF8012070BD002070BD39
:10259000000008082DE9F0410C46050035D004B3D1
:1025A00000F054F8E8B11B4E304600F037F8002830
:1025B0002BDB00EB4001184800EB810750F82100AD
:1025C0007A68101AA04220D300F0F6FDF32000F044
:1025D0001FFD0221B86800F037FD092802D000F085
:1025E00095FD12E0FFF73EFF224629463046FFF7F1
:1025F00089FF074600F08AFDFFF734FF2FB122461E
:1026000029463046FEF722F810B10020BDE8F081DF
:102610000120FBE700C000082848000810B502466A
:102620000949002000EB400351F82340944204D8AC
:1026300001EB83035B68934204D8401C0828F1D364
:102640004FF0FF3010BD0000284800082DE9F04190
:10265000174E3046FFF7E2FF164F05463846FFF7A4
:10266000DDFF0446002D1EDB002C1CDBA5421ADA20
:1026700005EB4500104D55F82000B04213D104EB96
:10268000440055F82000B8420DD10C48FFF7C6FFB2
:10269000A04208DB00EB400005EB800007494068E2
:1026A000491C884202D00020BDE8F0810120FBE7F0
:1026B00000C000080000010828480008FFFF0708C4
:1026C000002100F063B8000010B50121080701F0F7
:1026D0001FFD012001F000FD11480168090401D52A
:1026E000012010BD006810F4407F14D1012001F0DA
:1026F000E5FD0C4C00E0641E612001F0ABFD08B963
:10270000002CF8D1612001F0A5FD0028E9D04FF49C
:10271000007001F00DFE012001F004FEE0E7000072
:102720007038024040420F0010B500F019F8040064
:1027300004D0FFF7C9FF08B1206810BD002010BD0C
:1027400010B500F00DF8040008D0FFF7BDFF28B168
:10275000206800212160BFF34F8F10BD002010BD05
:1027600038B1012807D0022808D0032809D000205A
:102770007047054870470448001D704702480830FC
:10278000704701480C3070475028004070B50D4626
:10279000FFF7E6FF040006D0FFF796FF002802D0FF
:1027A0002560BFF34F8F70BD2DE9FC410024174F0A
:1027B0004FEA040504EB440007EB80063068C0B123
:1027C0003089B0B10121706801F096FCE0B20021BF
:1027D00000F09CF83089009001208DF804008DF8FD
:1027E00006508DF807508DF805506946306800F0A6
:1027F00004FD641C032CDDD3054C2570FFF764FD3C
:1028000060606570A570BDE8FC8100008848000824
:102810000C00002010B5064C0120A070FFF754FDFD
:10282000A0600121BDE81040022000F027B80000A0
:102830000C00002070B5104C05460020A0702570DB
:10284000FFF742FD606001206070072D11D2DFE8C4
:1028500005F0100407070A040A000121022004E021
:102860000121084601E001210020BDE8704000F090
:1028700005B80021F8E700000C00002070B50E46F6
:1028800005460024AC4202D10EB1012100E0002136
:10289000E0B200F03BF8641C032CF3D370BD0000E1
:1028A00010B5FFF711FD184A0023917841B19168E6
:1028B000401AFA2826D3BDE810400220FFF7BABF1D
:1028C0001178022914D0032915D0042916D006291D
:1028D00018D178215468041B8C4213D3506050786F
:1028E00070B100215170BDE810401846FFF7C6BF17
:1028F0004FF4FA7100E064210123EBE73221E9E7AC
:102900000121EFE710BD00000C000020032816D2C3
:102910000B4A00EB400002EB8002106800280ED04A
:102920001389002B0BD00029917A01D021B900E046
:1029300011B1194600F0C2BC194600F0C2BC704784
:102940008848000870B50546042846D2234E705DBD
:10295000002842D0C5EBC500214900EB400001EB47
:1029600080040022C021206801F060FD00221821AF
:10297000606B00F00DFB94F94C00012100F01F0288
:1029800091404009800000F1E020C0F88011002152
:10299000606B00F03FFA606B00F0D8FA0028FAD1C3
:1029A000A16C606B00F020FA606B00F03DFA94F9C6
:1029B0004C0000F045FD0021206801F02DFD20684D
:1029C00001F03CFD284600F063F90649002041F87B
:1029D0002500103141F82500705570BD0000002021
:1029E000D846000858080020042805D20349095C8D
:1029F000002901D000F0AEB97047000000000020AF
:102A00002DE9F04399B0064604287DD2DFF8809185
:102A100019F8060010B13046FFF794FFC6EBC60068
:102A20005C4900EB400001EB8004E1692069A26B86
:102A30000843E16A241D11430843012101F05CFBB6
:102A4000D4E9000201219047E27FA17CA06800F058
:102A500025FCE27FA17F606900F020FC208A4FF016
:102A600002088DF8088000258DF80A5001278DF89E
:102A70000B7001908DF8098001A9A06800F0BDFBE2
:102A8000A08B019001A9606900F0B7FB206A241FA8
:102A900060B1218D8DF808708DF80A5001918DF884
:102AA0000B708DF8098001A900F0A7FB304600F0FB
:102AB000EFF813A801F07AFD206D13900C20ADF80B
:102AC000560013A9206801F017FD0021606B00F08B
:102AD000A1F9606B00F03AFA0028FAD1606B00F0BF
:102AE000A3F93C2103A8FDF7A5FEE06B0390206845
:102AF000001D0490284800EB4620CDE905054FF461
:102B00000070CDE9070500E03FE04000CDE9090590
:102B10008010CDE90B504002CDE90D050F951095C1
:102B2000119503A9606B00F049FA94F84C008DF8F8
:102B30005C000F208DF85D008DF85E508DF85F70A1
:102B400017A800F089FC154840F82650103040F8CE
:102B50002650A16C606B00F047F901221821606BD0
:102B600000F016FA94F94C0000F06AFC0121606B49
:102B700000F050F901224021206801F057FC0121AA
:102B8000206801F049FC09F8067019B0BDE8F0832F
:102B900000000020D84600085800002058080020F7
:102BA0002DE9F05F17468A460546042865D2344869
:102BB000405D002861D0BAF1000F5ED0F7B3C5EBDD
:102BC000C500304900EB400001EB8008EFF31089AD
:102BD00072B6284600F0BEF8DFF8ACB05BF82540CE
:102BE000D8F834004068C0F50076284600F0B2F806
:102BF0005BF82500A04206D05BF82540D8F83400E9
:102C00004068C0F5007689F310881F4906EB442020
:102C1000103151F82520841A4FF40072944204D9DF
:102C2000A0F5007041F825001446BC4200D33C4694
:102C300031F825008846C0F3080000E01DE0C0F52B
:102C40000076A64200D92646104901EB452724B15B
:102C5000391832465046FDF744FDB44205D9A21B4F
:102C600039460AEB0600FDF73CFD58F825102046D2
:102C7000214448F82510BDE8F09F0020FBE7000044
:102C800000000020D8460008580800205800002006
:102C900004280ED2C0EBC00000EB4001054800EB59
:102CA0008101486A002804D091F83120098D00F094
:102CB0000ABB7047D84600082DE9F04799461746E9
:102CC0008A460646042806D22048805D18B1BAF12B
:102CD000000F03D117B10020BDE8F087C6EBC60096
:102CE0001B4900EB400001EB8005304600F05CF82A
:102CF000002415E0FFF7E8FA804605E0FFF7E4FA64
:102D0000A0EB080149451CD28021286801F0ECFBAA
:102D10000028F3D01AF80410286801F043FC641C62
:102D2000BC42E7D3FFF7D0FA074604E0FFF7CCFA3E
:102D3000C11B494505D24021286801F0D5FB002878
:102D4000F4D03046FFF7A4FF2046C5E7000000207E
:102D5000D846000870B50546C0EBC500104900EB29
:102D6000400001EB8004216C606B00F0F7F848B183
:102D7000216C606B00F038F80A4850F82510491CA7
:102D800040F82510616C606B00F0E8F8002805D071
:102D9000616C606BBDE8704000F026B870BD00004B
:102DA000D84600085808002004280ED2C0EBC00006
:102DB00000EB4001054800EB8101486A002804D07F
:102DC00091F83020098D00F07EBA7047D84600088F
:102DD0000320FFF709BE0120FFF706BE0020FFF722
:102DE00003BE0220FFF700BE074A904201D2074807
:102DF00001E005481038064A8B0001EA020101D5BE
:102E0000C1607047816070471064024000600240FA
:102E10007D0F7D0F0029016802D041F0010101E022
:102E200021F00101016070472DE9F043016821F0B4
:102E3000010101600021016041608160C1600161A8
:102E4000212141613C493C4A3D251039904202D143
:102E50008D60BDE8F083384A4FF4746618329042B2
:102E600001D18E60F5E7344A4FF474173032904246
:102E700001D18F60EDE7304A4FF0746C48329042D8
:102E800002D1C1F808C0E4E72B4B2C4A60339842CA
:102E900001D1CA60DDE7284C294B7834A04201D12A
:102EA000CB60D6E7DFF89080264C08F190084045CB
:102EB00001D1CC60CDE7DFF880804FF03D5908F1BB
:102EC000A808404502D1C1F80C90C2E71E49DFF8BE
:102ED00078800839404501D10D60BAE71A4D1835A0
:102EE000A84201D10E60B4E7174D3035A84201D198
:102EF0000F60AEE7144D4835A84202D1C1F800C0BA
:102F0000A7E7114D10496035091FA84201D10A6099
:102F10009FE70D4A7832904201D10B6099E70A4A47
:102F20009032904201D10C6093E7074AA832904258
:102F30008FD1C1F800908CE7106002403D00002066
:102F4000400F002000003D20106402400146002098
:102F50000968C90700D00120704700000246094BEC
:102F600000209A4201D2084A01E0064A103A8B003A
:102F700001D5526800E01268044B1A400A4200D0A2
:102F80000120704710640240006002407D0F7D0FF9
:102F90000B0607D5436912B143F0800301E023F02B
:102FA00080034361802908D0002A026801F01E01D5
:102FB00001D00A4300E08A430260704730B50368DD
:102FC000124ACC6813400A682243D1E905452C43D4
:102FD0002243CC6922430C6A22434C6A22438C6A06
:102FE00022434C6B22438C6B22431A43026042699A
:102FF00022F00703D1E90B2422431A4342610A69F4
:1030000042604A6882608968C16030BD3F801CF0C0
:1030100001490860704700000C3C02400549002847
:10302000086802D040F4806001E020F4806008600D
:1030300070470000003C02400248016841F48051A2
:1030400001607047003C024070B50646002529B17A
:10305000012927D0022928D04FF4407500F0BEF88E
:1030600009281ED1124C206820F44070206020688E
:1030700028432060206820F0F8002060206846F097
:10308000020108432060206840F48030206000F096
:10309000A5F8216821F002012160216821F0F801E2
:1030A000216070BD4FF48075D8E74FF40075D5E707
:1030B000103C02400D4909200A68D20301D50120C5
:1030C00070470A68D20601D5062070470A68D20503
:1030D00001D5022070470A6812F0E00F01D00720E6
:1030E000704709688907FBD5082070470C3C0240EF
:1030F00005490028086802D040F4007001E020F47F
:103100000070086070470000003C024002480168FF
:1031100041F0004101607047103C02400549002821
:10312000086802D040F4807001E020F480700860EC
:1031300070470000003C024070B50D46064600F0A6
:103140004DF8092811D1094C206820F44070206006
:1031500020682060206840F001002060357000F099
:103160003DF8216821F00101216070BD103C024052
:1031700070B50D46064600F031F8092813D10A4C07
:10318000206820F440702060206840F400702060C7
:10319000206840F001002060356000F01FF82168D1
:1031A00021F00101216070BD103C0240014908700E
:1031B00070470000003C024005480068002805DA1E
:1031C000034804490C38016003490160704700005E
:1031D000103C024023016745AB89EFCD08B50920BB
:1031E0008DF80000FFF766FF8DF800009DF80000E5
:1031F0000128F7D09DF8000008BDF0B50023012498
:1032000003270D6804FA03F21540954242D1D0F825
:1032100000C05E0007FA06F52CEA050CC0F800C0F5
:1032200091F804C0D0F800E00CFA06FC4CEA0E0C51
:10323000C0F800C091F804C0BCF1010F02D0BCF18D
:10324000020F1FD1D0F808C02CEA050CC0F808C046
:1032500091F805C0D0F808E00CFA06FC4CEA0E0C18
:10326000C0F808C0D0F804C02CEA020CC0F804C0B2
:10327000426891F806C00CFA03FC1FFA8CFC42EA83
:103280000C024260C268AA43C260CA79C568B240F3
:103290002A43C2605B1C102BB3D3F0BD4B07DB0E7F
:1032A0009A40C90810B500EB8100016A0F249C40C8
:1032B000A1430162016A1143016210BD09048161E9
:1032C0007047816170470AB1816170470904FBE76B
:1032D0000220FFF737BB0220FFF792BB0A460146E8
:1032E0000220FFF75DBC10B50C460A4601461423C8
:1032F0000220FFF7E1FCA04201D0012010BD002018
:1033000010BD00007FB5104C4FF000010500A1601A
:103310002170A1806180617014D000914FF4F07031
:10332000ADF80000FA200190084803910290694628
:103330000748FEF7D4FE002802D00120A560607087
:1033400004B070BD0020FBE72800002055330008C2
:103350007808002030B4002815D00C498B68002B69
:1033600011D00A782AB142888C88A24201D000226A
:103370000A704288521C8A8001220A7002894168C0
:10338000007830BC184730BC70470000280000208F
:1033900010B50E4890B04078002815D040216846FE
:1033A000FFF79CFF040009D0FEF78EFF0346A2B290
:1033B00069460748FEF7D1FD402CEFD0FEF784FFA9
:1033C00001460348FEF7A7FE10B010BD28000020FC
:1033D00078080020F0B585B0134D0023ADF810300B
:1033E0006B7893B1A1B1B2F5F07F0ED86C8804ABC5
:1033F00040F2EB160D4FCDE90263CDE900270B46F5
:1034000022460021FEF799FE28B1012005B0F0BD4B
:10341000002AFAD1EAE7641C6C80BDF8101003485A
:10342000FFF761FFF2E7000028000020C40A002037
:103430000B46012803D11146184600F0C1B8704769
:1034400000F01F02012191404009800000F1E020BE
:10345000C0F880127047000030B50F22C4780178A0
:103460000123FCB1144C246801F1E02104F4E06470
:10347000C4F5E064C4F30724C4F10405E2404478D1
:10348000AC408578154025432A0181F80024007856
:1034900000F01F018B404009800000F1E020C0F8DF
:1034A000003130BD01F01F0083404809800000F169
:1034B000E020C0F8803130BD0CED00E00907090EB6
:1034C000002806DA00F00F0000F1E02080F8141D5B
:1034D000704700F1E02080F80014704770B50D4689
:1034E00004000FD0B4F5E02F0CD801460648FEF7D3
:1034F000CBFF002805D0214600F030F8A84201D1CA
:10350000012070BD002070BD0000010800B5124808
:103510008BB0007900280ED0684600F0B5F96846F7
:1035200000F084F980B10298012803D0022804D069
:10353000032802D000200BB000BDDDE90301FFF736
:10354000CDFF0028F7D004E0684600F061F90028BC
:10355000F1D0FEF737FEEEE73400002070B54FF0F3
:10356000FF3210B100230A4D0EE079B1002070BD8A
:10357000C45C62400024D60700D02E46641C86EA54
:103580005202082CF7D35B1C8B42F1D3D04370BDA1
:103590002083B8ED10B504460620FFF74BF914B1AF
:1035A000204600F087FD054800218170012141700F
:1035B00000F026FDBDE81040FEF7CABE3400002032
:1035C00070B5002820D000291ED0104CE288531876
:1035D00040F2FE32934208D90023E380914204D99D
:1035E000A1F2FE3110FA81F011460D460849E28839
:1035F0008B1801462A461846FDF773F8E0882844E0
:10360000E080FEF761FEA06070BD00003400002085
:10361000AF0C002038B5244CE288042A40D3234D57
:10362000082A08D222A12846FDF710F800281CD04D
:10363000E088082805D308221DA11C48FDF706F8DC
:1036400010B10220E18828E0E0881C2828D3174820
:103650006A460421103000F06FF94FF0FF3290B14C
:103660000098B0F5F07F01D9500038BDE1881E30D8
:10367000814215D3291811F8023C2E2B03D111F8E1
:10368000011C4029F1D0104638BD2B5C2E2B03D1F4
:103690002B185B78402B05D090B2421C8A42F4D3A1
:1036A000002038BD801C38BD34000020AF0C002045
:1036B000232E484132322E2E000000002DE9F04129
:1036C0008CB0FFF771F83F4C0025E580E56025617F
:1036D0006561A570FEF7BAFF2071012748B1FEF7BA
:1036E000F3FF0020FFF72CF83749884208D101206A
:1036F00007E027700CB00620BDE8F041FFF79AB84C
:103700000020304E207018360220FFF719F880464E
:103710000320FFF715F82D493060884501D10120BD
:1037200000E00020E070FFF7F1FE0646207960B16E
:10373000684600F0A9F8684600F06AF828B1FEF77C
:1037400041FD10B10120FEF7BBFF3EB10120FEF7A5
:10375000EBFF1F49884201D0002000E0012060708B
:1037600000B12770FEF7B0FDA0F57A71C4E907013A
:103770000EB1607800B1E5702078E178084318D187
:10378000BEB10120FFF756F8FEF79EFD054607E0A3
:10379000FFF7FEFDFFF784F8E08808B1277008E026
:1037A000FEF792FD401BC828F2D3207808B900F03C
:1037B00011F80220FFF73EF8FEF786FDA0600CB07E
:1037C000BDE8F08134000020424B4454424B435545
:1037D0004F54415210B5FEF7F5FC58B1FFF778FD94
:1037E000FEF778FD002810D100F00AFCBDE810407B
:1037F000FEF7AEBD054901200870487000F000FCDE
:10380000BDE810400620FFF715B810BD34000020B9
:10381000002804D00021425CFF2A01D0002070471C
:10382000491C2C29F7D30120704700001FB5040064
:1038300020D02068104988421CD16068012819D125
:1038400000200EA2009001900290039007CA8DE81C
:1038500007001022694604F11400FCF7F7FE48B98E
:1038600028212046FFF77AFEA16A814202D1012079
:1038700004B010BD0020FBE74D41544F42333030BF
:103880005F463430375A450010B504000CD001466D
:103890002C220648FEF768FE002805D12046BDE828
:1038A00010402C21FCF7A4BF10BD000000C0000890
:1038B00070B5A2B0064615460C460BA8FFF7E4FF0C
:1038C0002C216846FCF7B6FF174800900120CDE98F
:1038D00001060BA8CDE90345FFF7A8FF00B1149836
:1038E00012A2401C099007CA05AB83E807002821F3
:1038F0006846FFF733FE0A902C216846FEF74AFE21
:1039000000280DD016A8FFF7BFFF16A8FFF78EFFFF
:1039100028B12C22694616A8FCF798FE10B10020A9
:1039200022B070BD0120FBE74D41544F423330308F
:103930005F463430375A450070B50024F8B1F2B113
:10394000E9B108291BD8002514E0435D2401A3F147
:103950003006092E01D834430BE0A3F14106052EB1
:1039600001D8373B04E0A3F16106052E07D8573B89
:103970001C436D1C8D42E8D30120146070BD0020F3
:1039800070BD0FB400B5A1B0229A42B123AB802123
:103990006846FCF7C7FC002801DB802803D3012020
:1039A00021B05DF814FB684600F084FBF8E70000E6
:1039B0002DE9F041284C294D49E0002007E0235C27
:1039C000232B03D123185B782E2B03D090B2421CFB
:1039D0008A42F4D38A420DD388B2204410F8010CF5
:1039E000232803D00020E880BDE8F0812320207048
:1039F0000120F8E738B1091A8EB22118324616486C
:103A0000FCF7B4FEEE80FFF705FE0600ECD0B01C1C
:103A100002D113A0FFF7BEFD701C02D115A0FFF765
:103A2000B9FD0D49B6B2324601F2FE30FCF759FE3F
:103A3000E888801B07043F0C04D0A1193A460648C9
:103A4000FCF794FEEF8031460F4800F01FF8E9883C
:103A50000029B2D1C8E70000AF0C002034000020DC
:103A6000232E484132322E4641494C2E4C454E2E93
:103A700040000000232E484132322E4641494C2E50
:103A800050415253452E4000AD1000202DE9F04F1B
:103A900087B00E46050060D0042E5ED32878232818
:103AA0005BD168782E2858D1A81910F8021C2E294D
:103AB00053D110F8010C40284FD1A81C0090301FA2
:103AC00087B2C34C4FF001094FF00008042F28D3F0
:103AD0000422C0A10098FCF7B9FDDFF800A378B379
:103AE0000422BFA10098FCF7B1FD002838D00422C1
:103AF000BDA10098FCF7AAFD002833D00422BCA188
:103B00000098FCF7A3FD010005F1100005F1080B7A
:103B100003903ED00422B8A10098FCF797FD00283E
:103B20007BD0052F06D30522B5A10098FCF78EFDAA
:103B3000002873D0B4A007B0BDE8F04F00F0BABAC7
:103B4000FFF7E4FC00B10120CDE900A04FF44033C1
:103B5000B04AB1A1B3A0FFF714FF07B0BDE8F08FE2
:103B6000BBA0E8E7C4F80C80C4F81080C4F8148047
:103B700084F8028084F8038084F8019084F800902F
:103B800000F03EFA0320FEF755FEB5A000F092FAD1
:103B9000CCE04546CDF80080CDF804801A2E0BD13C
:103BA0006A4608215846FFF7C7FE28B101AA082136
:103BB0000398FFF7C1FE10B9ACA0FFF7EBFC00982B
:103BC00010B1B0F5E02F02D9ADA0FFF7E3FC2078EB
:103BD00008B1207910B9AFA0FFF7DCFC0420FEF794
:103BE00029FEDDE900120120FFF762FE10B9AFA047
:103BF000FFF7D0FC50460099FEF7EAFB10B9B0A0E1
:103C0000FFF7C8FC0098E0600198C4E9040584F857
:103C100002900320FEF70EFE01E006E08AE0DDE9F7
:103C20000012ACA0FFF7ADFE80E0CDF80880CDF823
:103C30000480CDF810801E2E12D302AA0821584607
:103C4000FFF77AFE60B101AA04210398FFF774FE22
:103C500030B104AA082105F11400FFF76DFE10B978
:103C6000A2A0FFF797FC019800F11E018E4203D13C
:103C700010B1B0F5F07F02D9A1A0FFF78BFCA078BE
:103C800010B9A4A0FFF786FC0298E168884203D827
:103C9000081A0199884202D299A0FFF77BFC1C35D3
:103CA00028460199FFF75AFC0499884202D09FA048
:103CB000FFF770FC02986169884218D014D2A1EB1A
:103CC000000201998A420FD35044FEF7DDFB58B140
:103CD0000199FFF743FC049B984205D1606900906D
:103CE000DDE9012196A01FE09EA0FFF753FC029999
:103CF000042001EB0A06FEF79DFD29463046019A95
:103D0000FEF7CEFB28B90620FEF794FD9BA0FFF737
:103D100041FC0320FEF78EFD6069019A104460614A
:103D2000009087A0049B0299FFF72BFEFEF7CCFAC8
:103D3000A06012E7A07820B1E06810B1616981420B
:103D400002D093A0FFF726FCD4E90301FFF7C6FBDE
:103D500010B994A0FFF71EFCFEF734FA10B996A034
:103D6000FFF718FCD4E903120320FFF7A1FD10B9F7
:103D700097A0FFF70FFC0120FEF7A2FC84F801805A
:103D800084F8038084F8028084F80080D4E9032159
:103D900094A0FFF7F6FD0520FEF74CFDFEF794FA20
:103DA000054608E0FFF7F4FAFEF77AFDE08810B167
:103DB00084F80090D1E6FEF787FA401BC828F1D3BB
:103DC00020780028B5D107B0BDE8F04FFFF702BD5D
:103DD00034000020494E464F00000000000001085A
:103DE000484D4B41000000004841323000000000C7
:103DF00048413231000000004841323200000000EA
:103E00005354415254000000232E4641494C2E2E5B
:103E10004000000001000500423330305F4634307E
:103E2000375A4500232E494E464F2E4F4B2E424FB8
:103E30004F542E25732E2530386C582E2530386C73
:103E4000582E2530386C582E2530386C582E4000AE
:103E5000232E484D4B412E4F4B2E2E40000000008C
:103E6000232E484132302E4F4B2E4000232E484106
:103E700032312E4641494C2E50415253452E40007E
:103E8000232E484132312E4641494C2E53495A4542
:103E90002E400000232E484132312E4641494C2EFF
:103EA0004E4F424F4F542E4000000000232E4841F9
:103EB00032312E4641494C2E4D4554412E40000092
:103EC000232E484132312E4641494C2E4552415312
:103ED000452E4000232E484132312E4F4B2E2530A7
:103EE000386C582E2530386C582E4000232E48410F
:103EF00032322E4641494C2E50415253452E4000FD
:103F0000232E484132322E4641494C2E4C454E2EEE
:103F100040000000232E484132322E4641494C2EAB
:103F20004E4F53455353494F4E2E4000232E484188
:103F300032322E4641494C2E4352432E400000005F
:103F4000232E484132322E4F4B2E2530386C582EBE
:103F50002530346C582E2530386C582E2530386C6E
:103F6000582E4000232E484132322E4641494C2ED5
:103F70004F46465345542E4000000000232E484132
:103F800032322E4641494C2E464C4153482E400079
:103F9000232E53544152542E4641494C2E53495AD4
:103FA000452E4000232E53544152542E4641494C35
:103FB0002E4352432E400000232E53544152542E80
:103FC0004641494C2E564543544F522E4000000066
:103FD000232E53544152542E4641494C2E4D4554A4
:103FE000412E4000232E53544152542E4F4B2E2528
:103FF00030386C582E2530386C582E4000000000A8
:1040000001490120FEF7C2BB4F54415270B59AB02E
:10401000FFF7CEFCFEF758F91C4C05466178E078B6
:10402000014315D0A17899B9216A691AB1F57A7F4F
:104030000ED300B1A069009015A318A2602101A8B9
:10404000FCF78AF901A800F035F8FEF7E3FB2562DA
:10405000E07840F6B83638B1A07828B9E069281A77
:10406000B04201D3FFF7B6FB207800280BD0A07830
:10407000002808D0A068281AB04204D90020E060C7
:104080006061FFF787FA1AB070BD000034000020AD
:10409000423330305F463430375A4500232E4F5478
:1040A00041434845434B2E25732E2530386C582EFE
:1040B0004000000010B5040004D0FCF7F3FAB0F59E
:1040C000F07F01D9012010BD214682B2BDE8104029
:1040D0000120FFF77FB90000014908627047000026
:1040E00000000E42034A116821F44041014311606F
:1040F0007047000000700040044A0029116801D098
:10410000014300E0814311607047000030380240F5
:10411000044A0029116801D0014300E08143116085
:104120007047000040380240044A0029116801D05D
:10413000014300E0814311607047000020380240D5
:10414000044A0029116801D0014300E08143116055
:104150007047000044380240044A0029116801D029
:10416000014300E0814311607047000024380240A1
:104170001048016841F0010101600E4A0021083237
:10418000116002680C4B1A400260031D0B4A1A6052
:10419000084B0B4A84331A60084A103A1B1D1A60F8
:1041A000026822F48022026002480C300160181D6F
:1041B0000160704700380240FFFFF6EA103000242B
:1041C0000030002070B5204A1168204C11F00C011D
:1041D00004D06610042903D0082903D004601BE032
:1041E000066019E01849091F0B68C3F380550B6876
:1041F00003F03F0315B1B6FBF3F301E0B4FBF3F3B7
:104200000C680968C4F388146343C1F30141491C75
:104210004900B3FBF1F1016011680F2303EA1111AA
:104220000B4B5C5C0168E14041601468072505EABE
:1042300094241C5D21FA04F48460126805EA523269
:104240009A5CD140C16070BD083802400024F4007F
:104250001800002002460020510901290BD0022934
:104260000CD00849096802F01F02012393400B4259
:1042700000D00120704703497439F3E70149091F51
:10428000F0E70000743802400248006800F00C00BB
:104290007047000008380240034A116821F0F0011D
:1042A00001431160704700000838024002490022B3
:1042B0000A70087070470000023802400149086027
:1042C00070470000800E4742034A116821F4E05114
:1042D00001431160704700000838024003490A6832
:1042E00022F4604242EAC000086070470838024089
:1042F00001490866704700000000474241EA821108
:104300005A0810B5054B029C03EB024211430143CE
:1043100041EA04600249086010BD00000000FFFF90
:104320000438024001490860704700003C0E4742D3
:10433000C0F30121032907D1074A116821F4F813BA
:104340000649014019431160034968310A68C0F306
:104350000B0002430A60704708380240FFFCFF0F61
:10436000034A116821F00301014311607047000006
:104370000838024018B500204FF4A04400903120C6
:10438000FFF768FF0099491C0091A14201D0002865
:10439000F5D03120FFF75EFF002800D0012018BDC6
:1043A00002484168491C4160704700000400002039
:1043B0001FB56846FFF706FF0149019808601FBD59
:1043C000040000201048016841F4700101600F48AA
:1043D000016841F0010101600C4A002108321160BE
:1043E00002680B4B1A400260031D0A4A1A600268F9
:1043F00022F48022026005480C3001600249580610
:10440000803908607047000088ED00E00038024005
:10441000FFFFF6FE103000240029818902D041F40C
:10442000005101E021F4005181817047002A828A05
:1044300001D00A4300E08A4382827047224910B5C6
:10444000884206D101211020FFF786FE00211020AE
:1044500020E01E49884202D101214C0429E01C4978
:10446000884202D101218C0423E01A49884202D1FA
:104470000121CC041DE01849884202D101210C051C
:1044800017E01649884209D101212020FFF764FE78
:1044900000212020BDE81040FFF75EBE1049884291
:1044A00002D101218C0704E00E4988420AD1012182
:1044B00044052046FFF738FE2046BDE810400021A5
:1044C000FFF732BE10BD0000001001400044004064
:1044D00000480040004C00400050004000140140E3
:1044E00000780040007C00400246002012880A420A
:1044F00000D00120704700007FB50446008A0D46B9
:1045000020F44051E88808432082A08941F20C61E0
:104510008843A9882A8911436A8902431143A181EA
:10452000A08A20F44071A8890843A0826846FFF75A
:1045300049FE1A48844202D01948844201D10398A6
:1045400000E00298A189090400EBC00101EB001012
:10455000296801D5490000E08900B0FBF1F2642030
:10456000B2FBF0F109010B096FF018056B4302EB88
:104570008302A3891D044FF0320306D503EBC20268
:10458000B2FBF0F000F0070005E003EB0212B2FB13
:10459000F0F000F00F00084320817FBD00100140C3
:1045A00000140140C1F30801818070474FF4165197
:1045B000016000218180C18001810C2242818181C2
:1045C000704703B401984100009850EAC12018BF19
:1045D00004204A0D18BF40F0010040F2FF72B2EB18
:1045E000515F08BF40F00200012808BF052002B05B
:1045F000704730380A2801D20120704700207047E8
:10460000FDF706FEFDF7B6FE78B1FEF764FE094839
:10461000FEF778FE50B1FFF751F800BFFEF7B8FE85
:10462000FFF7F4FCFEF73CF9F8E7FEE7FEF750FE73
:10463000FEE7000031340008002180F84412A0F8A1
:104640004212042180F834107047002180F83410A1
:10465000A0F83C12A0F83E1280F84412A0F84212D2
:10466000A0F84012016B491C0163704710B5002986
:104670000AD00878002807D005487844FDF73AF8B2
:10468000002801D0002010BD0248784410BD000071
:10469000520300004A03000010B500290AD0087830
:1046A000002807D005487844FDF724F8002801D0F9
:1046B000002010BD0248784410BD000042030000F5
:1046C0003A0300004FF04070E1EE100A7047FCF72B
:1046D00034BCFCF769BD000000440040000002004B
:1046E0001141000800000240010000000400020027
:1046F000000002400100000008000307000802401B
:1047000000800000040000000001000088600240FA
:104710000000200000000008000800200004002025
:10472000400F00201000000000840300004C0040F7
:1047300000000800114100080000024001000000D4
:10474000010000000000024001000000020001081A
:1047500000080240004000000400000000010000CA
:10476000406002400000200000000008000020100F
:104770000000101000003D100D00000000C20100FC
:1047800000100140100000004141000800040240F8
:104790000200000040000600000402400200000089
:1047A000800007070008024000200000040000000D
:1047B0000001000088640240000040000000000882
:1047C0000008002000040020400F002044000000EA
:1047D000008403000048004000000400114100086C
:1047E000000C02400800000000010800000C02401C
:1047F000080000000002090700000000000000009F
:1048000000000000000100002860024000002000BD
:10481000000000080008001000040010400F001005
:104820000C00000000C20100000000080040000869
:1048300000000000004000080080000808000000A0
:104840000080000800C000081000000000C0000840
:104850000000010818000000000001080000020824
:1048600020000000000002080000040828000000EA
:1048700000000408000006083000000000000608E0
:104880000000080838000000000C0240080000008A
:1048900008000100000C02400800000010000100A8
:1048A000000C0240080000002000010030313233CB
:1048B0003435363738394142434445464030580054
:1048C0003031323334353637383961626364656686
:1048D00040307800040000080000000000000002E2
:1048E00000010000100000000000000000000000B7
:1048F0003031323334353637383961626364656656
:1049000078700030313233343536373839414243EC
:10491000444546585000000002400000000000A03E
:104920000000000005400000000000C8000000007A
:104930000C4000000000409C0000000019400000F6
:104940000020BCBE0000000034400000BFC91B8E28
:1049500000000004B5400000504BCFD06607E2CF06
:10496000010000006C4100003E8251AADFEEA73436
:1049700001000000D9420000DCB5A0E23A301F97E8
:10498000FFFFFFFFB4450000FD25A0C8E9A3C14F0C
:10499000FFFFFFFFFF3F000000000080000000005D
:1049A000FF3F00000000008000000000F84A0008FF
:1049B0000000002058000000C4010008504B00080F
:1049C00058000020B8180000E00100081C0000009A
:1049D00043000000F8FFFFFF0C0000000E00000085
:1049E0000F0000002E000000100100004300000036
:1049F000F8FFFFFF00404040404040404040414100
:104A000041414140404040404040404040404040A3
:104A1000404040404005020202020202020202023D
:104A2000020202020220202020202020202020023A
:104A300002020202020290909090909010101010CA
:104A40001010101010101010101010101010101066
:104A500002020202020288888888888808080808FA
:104A600008080808080808080808080808080808C6
:104A700002020202400000000000000000000000EE
:104A80000000000000000000000000000000000026
:104A90000000000000000000000000000000000016
:104AA0000000000000000000000000000000000006
:104AB00000000000000000000000000000000000F6
:104AC00000000000000000000000000000000000E6
:104AD00000000000000000000000000000000000D6
:104AE00000000000000000000000000000000000C6
:104AF0000000000000000000000000000024F4009E
:104B000000000000000000000000000000000000A5
:104B10000000000001020304010203040607080963
:104B20000000000000000000000000000000000085
:104B30000000000000000000000000000000000075
:104B40000000000000000000000000000000000065
:040000050800018965
:00000001FF
